:020000040800F2
:10400000A82B002021410008334D0008154B000863
:10401000314D000807420008A95C000800000000BC
:1040200000000000000000000000000039500008FF
:104030005D47000800000000ED4E000855570008DD
:104040003B4100083B4100083B4100083B41000860
:104050003B4100083B410008D94700083B410008AC
:104060003B4100083B4100083B4100083B41000840
:104070003B4100083B4100083B4100083B41000830
:104080003B4100083B4100083B4100081F5B000822
:10409000155C00083B4100083B4100083B4100081B
:1040A0003B4100083B4100083B4100083B41000800
:1040B000295800083B4100083B4100083B410008EB
:1040C0003B4100083B4100083B4100083B410008E0
:1040D0003B4100083B410008615900083B41000892
:1040E0003B4100083B4100083B410008DFF80CD091
:1040F00000F04CF800480047F5A00008A82B00206D
:10410000EFF30980704780F309887047EFF3088068
:10411000704780F30888704740BA7047C0BA70474C
:104120000648804706480047FEE7FEE7FEE7FEE751
:10413000FEE7FEE7FEE7FEE7FEE7FEE7A957000819
:10414000ED40000840EA01039B0703D009E008C9DD
:10415000121F08C0042AFAD203E011F8013B00F84C
:10416000013B521EF9D27047D2B201E000F8012B98
:10417000491EFBD270470022F6E710B513460A46E7
:1041800004461946FFF7F0FF204610BD064C074DC8
:1041900006E0E06840F0010394E807009847103417
:1041A000AC42F6D3FFF7A6FFB4B10008D4B10008C3
:1041B00070B58C1810F8015B15F0070301D110F8E9
:1041C000013B2A1106D110F8012B03E010F8016B16
:1041D00001F8016B5B1EF9D12B0705D40023521E99
:1041E0000DD401F8013BFAE710F8013BCB1A921C01
:1041F00003E013F8015B01F8015B521EF9D5A142FF
:10420000D8D3002070BDFEE7C1B2000A40EA012009
:10421000704700002DE9F041184E194F194C1A4D06
:1042200026E000BF47F6FF702060288800F00F01ED
:1042300007EB81003170D0F8002C92B2130408D53E
:10424000D0F8002C40F68F731A40C0F8002C0F48AD
:1042500009E012060CD5D0F8002C48F60F731A406E
:10426000C0F8002C0A4800EB810050F8040C80478D
:10427000206828800004D5D4BDE8F081441A0020CD
:1042800000500040445C0040A41000208810002032
:104290006C1000202DE9F84F0020ADF80000DFF889
:1042A00034A14BF6BF7648F280074A4D4A4C40F69F
:1042B0008F7848F60F7BDFF824910AF1440A31E049
:1042C0000888474A10F00F00107034D0454901EBC0
:1042D0008001D1F8002CADF80020BDF800201204B8
:1042E0000BD5D1F8002C02EA0802C1F8002C3E4997
:1042F00001EB800050F8040C8047BDF80000000678
:1043000010D537483749007801EB8001D1F8002CEF
:1043100002EA0B02C1F8002C344901EB800050F88E
:10432000040C8047DAF800004946A9F800000004B0
:10433000C6D4BDE8F88F28682080208800F03000BF
:104340006080208800F4405020802868304080F44D
:10435000005080F02000384328600888C006286894
:1043600015D400EA0B00286000F068FC26E02188E4
:10437000890401D580F400506188C90626D461887B
:10438000890601D580F0200038432860D1E7ADF8D8
:104390000000BDF80000000506D5286800EA080006
:1043A000286001F003F809E0BDF800000004B9D569
:1043B000286800EA0800286000F064FD2868218869
:1043C0003040C904D3D580F48050D0E780F010008D
:1043D000D5E70000005C0040561A0020A410002021
:1043E000441A002000500040881000206C1000206B
:1043F000810008480844D0F8001C490409D5D0F8C9
:10440000001C48F68F7211404CF280021143C0F834
:10441000001C704700500040810008480844D0F854
:10442000001C490609D5D0F8001C48F68F721140CF
:1044300048F2C0021143C0F8001C70470050004011
:10444000810006480144D1F8000C48F68F62104004
:1044500048F280021043C1F8000C70470050004041
:104460002DE9F047DFF89480254F4FF03009D8F858
:10447000001001F11005088A0E7A08B9042E04D044
:10448000AC88A04215D8042614E01E480178012902
:1044900003D00726102038802BE01B4A0021126829
:1044A0001A4B120403EBD2325160A7F8009001704E
:1044B0001FE00226844200D90446A96820468847A6
:1044C0008246002000F0D8FA01462246504601F00C
:1044D000EDFB2146002000F0C3FE2888001B288049
:1044E000688820446880A7F8009009494FF440503C
:1044F0000880D8F800000672BDE8F087481A00204E
:10450000581A0020401A0020505C00400060004013
:10451000561A00202DE9F047224EDFF88C80302714
:10452000356835F8100FA968A9B100B3AC8884428A
:1045300000D904462046884781462888001B2880E9
:10454000688820446880002000F076FA0146224600
:10455000484600F0BBFC288848B114494FF440504D
:1045600008800021084600F07BFEA8F8007028882B
:10457000A988884201D3032001E020B105203168D9
:104580000872BDE8F08731680620087208490020EB
:104590000968084A090402EBD1314860A8F80070A4
:1045A000EFE70000481A0020581A0020561A002091
:1045B000505C004000600040F8B55F4C5F4D09263C
:1045C0002068002729684278062A05D0CAB1082A3F
:1045D00051D00A2A54D06FE0027852066CD180780C
:1045E000012806D0022806D0062806D0032806D0C7
:1045F00062E0C96958E0096A56E0896A54E0496A8C
:1046000052E04288B2BBC288022A55D102798ABBE5
:104610000278530601D1838833B102F07F02012A68
:1046200004D0022A0CD047E045493DE08A69407930
:1046300000219047F0B92068807A0028F4D13BE04F
:10464000417901F00F0001F070020B063D4901EBCA
:104650008001D1F8001C03D5C1F30111090102E06A
:10466000C1F301310903384B1B78834224D90AB9BD
:104670000029D9D120E0007840061DD1334913E04C
:10468000027802F07F02012A16D1827AA2B1428812
:1046900092B9027982B9C288012A0DD18A6940791A
:1046A0000021904740B92A4931B120684782816191
:1046B00000208847002006E02968206809694078C2
:1046C0008847032813D021680A8AA2F57F43FF3B5D
:1046D0000BD002280ED06AB10878000626D5C8880B
:1046E000009082420AD9088218E00E72F8BD206854
:1046F0000672F8BD4FF008000872F8BD0ED22868A7
:10470000144B90F83000824201D21F7006E0B2FBD9
:10471000F0F400FB142008B901201870286890F804
:1047200030008882BDE8F840FFF79ABE0320087287
:10473000094900030880F8BD481A00204C1A0020DF
:104740007D55000800500040201900201155000838
:1047500055550008401A0020561A0020704701B530
:10476000009801E0401E00900028FBD108BD01B573
:1047700081B0762204E000920098411E0091FBD2A5
:104780000198411E0191F6D20CBD000001490120A3
:10479000087070470010002000F0CEB901F0C6BDCF
:1047A000704704F063BA000010B50649052001F017
:1047B00043FA81B2034804F087FABDE810400520AF
:1047C00000F02CBD701A002010B501F067FDBDE8A7
:1047D000104005F003BD000010B5012000F01CF8EA
:1047E00000280ED007480268012142B10022026071
:1047F00005480160BDE81040012000F007B80160E5
:10480000F6E710BDEC190020F019002001490860FE
:104810007047000014040140064A01460020126857
:10482000044B0A4014331B680B4202D0002A00D00C
:1048300001207047000401400B4B48F68F7203EBD8
:10484000800001290AD0022907D1D0F8001C1140AC
:104850004CF280021143C0F8001C7047D0F8001CD5
:10486000114048F2C002F5E70050004008B50121B0
:104870004FF4FE7000F086FB4FF6FF70ADF80000BD
:1048800000208DF8030069460B4800F059F869468E
:104890000A4800F055F86946094800F051F86946A1
:1048A000084800F04DF86946074800F049F86946A5
:1048B000064800F045F808BD000C0140001001401A
:1048C0000014014000180140001C0140002001407C
:1048D00038B501211C2000F055FB4FF48040ADF8A5
:1048E000000010208DF803000220124C8DF8020009
:1048F0006946204600F024F84FF40040ADF800006F
:104900006946204600F01CF82024ADF800406946B6
:10491000094800F015F8E500ADF800506946074871
:1049200000F00EF8044814300460044810300560AC
:1049300038BD000000100140000C0140000801409B
:10494000F0B5CA78002502F00F03D20601D58A78A7
:1049500013430A784FF00F0E12F0FF0F4FF00102D1
:104960001CD004680F8802FA05F63740B74211D10F
:104970004FEA850C0EFA0CF724EA070703FA0CF449
:104980003C43CF78282F02D0482F02D002E0466166
:1049900000E006616D1C082DE4D304600C88FF2C38
:1049A0001ED944685FF0000606F1080702FA07F511
:1049B0000F882F40AF420FD14FEA860C0EFA0CF74A
:1049C000BC4303FA0CF73C43CF78282F00D1456154
:1049D000CF78482F00D10561761C082EE4D34460BF
:1049E000F0BD0000034901EB8000D0F8000C80B25C
:1049F00070470000005000400549096889B201EB8A
:104A0000C000044901EB40008088C0F309007047F2
:104A1000505C0040006000400549096889B201EB24
:104A2000C000044901EB40008089C0F309007047D1
:104A3000505C0040006000400549096889B201EB04
:104A4000C000044901EB4000008980B270470000BB
:104A5000505C0040006000400549096889B201EBE4
:104A6000C000044901EB40008089C0F30900704791
:104A7000505C0040006000400449096889B201EBC5
:104A8000C000034931F8100080B27047505C00400C
:104A9000006000402DE9F0411C484FF000660168BD
:104AA000001D0568001D00680C181949542001F10B
:104AB000100788700020C8703068C2B2542A15D020
:104AC00006220020091D00F0E7F828460822394692
:104AD00000F0E2F82046082207F1100100F0DCF8AF
:104AE0000620801C5028FCDBBDE8F081000A06226D
:104AF000091D00F0D1F802223946706800F0CCF8A8
:104B00000349082214312046E8E70000E8F7FF1FB8
:104B10001C100020FEE70000064810B502210170BD
:104B2000212141700222FA21002000F0D9F8022050
:104B300010BD0000D824002010B50449012001F068
:104B40007BF803490120086010BD0000D81A00203E
:104B50009C1900200021C278001D11E0412A0DD1CE
:104B600010F8011B10F8012B42EA012210F8021B79
:104B700041EA02210A0210F8011C114310F8012B2E
:104B8000002AEBD106480270064A914205D0064A37
:104B90001160064A01211160017001207047000078
:104BA000D824002000400008041000200810002035
:104BB000012080F3138805480168054A01F4E0618B
:104BC00011430160BFF34F8FFEE700000CED00E0E2
:104BD0000400FA0501480068704700009C19002095
:104BE000134910B50020086012480078612804D0ED
:104BF000682806D0692811D117E00E48FFF7AAFFF0
:104C000002E00C48FFF788FF021E07DD0A498120F9
:104C100001F024F83021012000F030FBBDE8104005
:104C20004FF44051012000F0E1BAFFF7C1FF00004E
:104C30009C190020D81A0020D824002010B5134C4D
:104C40002068017A022904D0042902D0062905D05F
:104C500015E0FFF705FC2068007A11E0417805298E
:104C600009D10178490606D1C07800F0EFF908486B
:104C70000068006A8047074800688068804708200D
:104C800021680872BDE8104000F032B9481A0020CF
:104C9000501A00204C1A002030B500231D460EE0AB
:104CA00000F00F040A2C01D2303400E0373401F850
:104CB000134001EB430400095B1C6570DBB29342B7
:104CC000EED330BD10B54168044CA160E1600068CE
:104CD000FFF71FFAE068BDE810400047041000200D
:104CE00072B60448416081604FF47A714A43C260F1
:104CF00062B67047001A00200B480C4A4FF400417E
:104D0000C3686BB15B1EC36083685B1E836006D1A2
:104D10004368836003781BB1116100210170704703
:104D200051610121FAE70000001A00200010014043
:104D3000FEE770477047000070B50F23C478017814
:104D40000122F4B1144C2468457804F4E064C4F5FD
:104D5000E064240AC4F10406E3408478B5401C40B2
:104D60002C4301F1E021230181F80034007800F0A8
:104D70001F018A404009800000F1E020C0F80021B6
:104D800070BD01F01F0082404809800000F1E02062
:104D9000C0F8802170BD00000CED00E0024908431E
:104DA00002490860704700000000FA050CED00E0C1
:104DB00070B52F4D2868017844784A0606D001F076
:104DC0007F00012828D002282BD035E0092C06D0FE
:104DD000052C07D0032C0ED0012C14D02CE000F0B1
:104DE00017FC28E0C1787F292ED8817861BB8188A3
:104DF00051BB807A27E0C17801291DD18088D8B9BC
:104E000000F022FC17E0C178012915D1818899B9F9
:104E1000407A80060AD40FE00B2C0DD100F06AFC1A
:104E200009E0012C02D0032C03D005E000F0F2FAD7
:104E300001E000F01BFC58B10E49204609684969A1
:104E40008847032802D018B108200DE009200BE0A4
:104E5000094A062000211268084B120403EBD232E3
:104E60005160074A302111802968087270BD000026
:104E7000481A00204C1A0020505C0040006000409E
:104E8000581A002010B50F4C2068007A022811D063
:104E900004280FD0032804D0052802D0072805D005
:104EA00008E0FFF737FB2068007A04E00648006856
:104EB000C0688047082021680872BDE8104000F0F3
:104EC00017B80000481A00204C1A0020064B521C4C
:104ED000520803EB410105D031F8043B20F8023BB6
:104EE000521EF9D17047000000600040704700007A
:104EF0000C4810B590F83010002000F057F90A481F
:104F00000068007A082802D0092809D006E007497D
:104F10004FF480500880064910200880002010BD02
:104F2000012010BDBC100020481A0020561A002095
:104F3000581A00200949202008600949C00008606B
:104F40000848012101600021074A0160031D196022
:104F50004FF4E0511180016000207047100C0140B7
:104F600014080140405C0040541A0020044A002903
:104F7000D16901D0014300E08143D1617047000055
:104F800000100240044A0029916901D0014300E069
:104F900081439161704700000010024030B51F4905
:104FA0004A6812F00C031E4A03D0042B01D0082BD0
:104FB00021D002604A680F231A4C03EA1212A35C44
:104FC0000268DA4042604B68072505EA1323E35C78
:104FD00022FA03F383604B6805EAD323E35CDA40EB
:104FE000C2604968032303EA9131231F595CB2FB75
:104FF000F1F1016130BD4A684B6802F470124FF064
:10500000020413F4803F04EB924202D04B689B03EE
:1050100001D5054B00E0024B5A43CAE7001002409D
:1050200000127A00301A002000093D000149C1F841
:10503000D80070470000424270470000024920F04B
:105040000700086070470000505C0040F0B50E4952
:105050000E4D48F68F770B78002148F2800C0BE05C
:10506000CEB205EB8604D4F8002C3A40324342EA33
:105070000C02C4F8002C491C9942F1D3044940F0B9
:1050800080000860F0BD00002019002000500040A2
:105090004C5C004030B521F0010409490B6822F056
:1050A00001029BB203EBC0035D00064BEC500968A4
:1050B00089B201EBC00003EB4000826030BD00000C
:1050C000505C0040006000402DE9F043254D01296F
:1050D00012D002290ED1296889B201EBC0014B0020
:1050E00021490B445A602B689BB203EBC00001EBD3
:1050F0004000C260BDE8F08329681B4B89B201EB18
:10510000C0011B1D03EB410C530951085E1E4C1CD2
:105110004FF400493E2A07D91F465FEAC26800D112
:10512000B7B249EA872705E00F465FEAC27800D0A8
:105130002746BF02CCF800702D68ADB205EBC00069
:10514000094D0C3505EB40003E2A05D9D10600D1AA
:10515000B3B249EA832103E0D20700D02146890295
:105160000160C7E7505C00400060004081000648D5
:105170000144D1F8000C48F68F72104048F28012BA
:105180001043C1F8000C704700500040054A21F060
:105190000101126892B202EBC000034A02EB400028
:1051A00081607047505C0040006000400D4A12680A
:1051B0003E2992B202EBC0000B4A02EB400209D931
:1051C0004809C90601D1401E80B24FF4004141EAAE
:1051D000802004E04808C90700D0401C800210600D
:1051E00070470000505C00400C60004082000A489C
:1051F0000244D2F8000C4BF68F731840CB0401D553
:1052000080F48050890401D580F4005048F2800178
:105210000843C2F8000C7047005000408100074866
:105220000144D1F8000C4BF68F72104080F44050CE
:1052300048F280021043C1F8000C70470050004053
:10524000054A21F00101126892B202EBC000034A44
:1052500042F8101070470000505C004000600040B1
:10526000044A126892B202EBC000034A02EB40000B
:1052700041607047505C00400060004082000A4876
:105280000244D2F8000C48F6BF731840CB0601D593
:1052900080F01000890601D580F0200048F28001DE
:1052A0000843C2F8000C70470050004082000548D7
:1052B0000244D2F8000C48F68F1318400843C2F895
:1052C000000C7047005000400CB5002126480191A9
:1052D0000091026842F4803202604FF4A0630268D9
:1052E00002F400320092019A521C0192009A12B903
:1052F000019A9A42F3D10268920333D501210091B9
:105300001A490A6842F010020A600A6822F0030291
:105310000A600A6842F002020A604168416041681E
:105320004160416841F480614160416821F47C1131
:105330004160416841F4E8114160016841F08071C9
:10534000016001688901FCD5416821F003014160D9
:10535000416841F0020141604168C1F381010229C5
:10536000FAD10CBD00910CBD00100240002002409B
:1053700010B501210807FFF7F9FDFFF777FAFFF7EE
:10538000A7FA03F051FC03F0DDFB02494FF4804023
:10539000086110BD0010014010B50020FFF746FE67
:1053A0000121BDE81040C805FFF7E0BD70B5164803
:1053B0000068174D0004C10B14480144098989B2E3
:1053C00000EB41042868017A09290FD02178017087
:1053D00061784170A088FEF717FF2968488020890E
:1053E000FEF712FF29688880A089C88028680121FB
:1053F0000172C08828B1FFF7DFF8BDE87040FFF701
:1054000077BDFFF7D5FCF8E7505C00400060004036
:10541000481A00202DE9F04138480068017811F061
:105420007F0102D0022905D066E0417A01F0DF0158
:1054300041724EE0418800295ED10179F1BB41798A
:10544000304D21F080040A0605EB84022C4BD2F883
:10545000002C03D5C2F30112120102E0C2F30132A3
:1054600012031E782346A64246D93AB3807A28B35F
:1054700008064FEA84000ED52844D0F8000CC0F38B
:105480000110012821D11846FEF7C6FF2046302121
:10549000FFF7F4FE19E04619D6F8000CC0F301300E
:1054A000012812D14BF68F7748F28008A4B1184634
:1054B000FEF79EFFD6F8000C384000E01CE080F4B8
:1054C000405040EA0800C6F8000C0F4800684069E8
:1054D00080470020BDE8F0810C4890F83010002093
:1054E000FFF764FED5F8000C384080F4405040EAE5
:1054F0000800C5F8000CE8E70220EBE7481A002096
:105500002019002000500040501A0020BC1000203C
:1055100010B5074C30B10748006800688047206824
:105520000A3010BD216801200882002010BD000053
:10553000481A0020501A0020054A13685A8A10B1F0
:105540000868104470478888801A188200207047C5
:10555000481A002010B5074C30B107480068806831
:10556000804720680C3010BD21680120088200208F
:1055700010BD0000481A0020501A0020204910B524
:10558000096860B11F48002202800A7853060AD0D9
:1055900002F07F02012A16D0022A16D001E0022072
:1055A0000882002010BD497A8A06027802D542F0AE
:1055B000020201E002F0FD0249060270D1B211D4EC
:1055C00001F0FE0110E00F4810BD4A7911071306E3
:1055D0000D4A02EB9161D1F8001C07D5C1F301110E
:1055E00006E0017841F00101017003E0C1F30131EF
:1055F0000129F6D00548006800698047E3E700000C
:10560000481A0020421A002000500040501A002082
:105610000A4810B500680A4AC1785278914203D806
:1056200082780AB982880AB1022010BD81720548C9
:10563000006840688047002010BD0000481A002024
:1056400020190020501A0020064810B50068417A41
:1056500041F02001417204480068C0698047002081
:1056600010BD0000481A0020501A002070B51D48D7
:105670001D4D0368597921F0800005EB80000C0670
:10568000D0F8004C21F0800203D5C4F301142401AA
:1056900002E0C4F301342403144D2D78954210D94F
:1056A0005A8872B96CB19A7A5AB10906D0F8001CBE
:1056B00048F2800207D548F6BF73194081F0100107
:1056C00006E0022070BD4BF68F73194081F48051C3
:1056D0001143C0F8001C064800688069804700201C
:1056E00070BD0000481A0020005000402019002022
:1056F000501A002010B50E4C0E4A20681268C1786E
:1057000092694079904721688A7A22B118B908795C
:1057100008B9887808B1022010BD07480068C06841
:10572000804720684179C172C1780173002010BDA3
:10573000481A00204C1A0020501A00204FF0E02197
:105740000428086903D020F004000861704740F085
:105750000400FAE7104910B5086898B10F480268CC
:105760001AB10168491E016003E064220260002250
:105770000A6002680A494FF40040322A01D24861A7
:1057800000E00861FFF7B8FA06480168002902D076
:105790000168491E016010BD18100020141000207F
:1057A00000100140E81900200F4810B5016841F0D1
:1057B0000101016041680D4A1140416001680C4AD5
:1057C00011400160016821F480210160416821F4E9
:1057D000FE0141604FF41F018160FFF775FD06492E
:1057E0000448086010BD0000001002400000FFF8EF
:1057F000FFFFF6FE0040000808ED00E038B509485C
:10580000002480F8144D400DFFF7C8FA25208DF8CC
:10581000000001208DF802008DF803406846FFF774
:105820008BFA38BD0FE000E010B501218C0720464F
:1058300000F023F828B10121204600F011F804F00F
:1058400009FD0221204600F018F8002807D00221A7
:10585000204600F005F8BDE8104004F0FBBC10BD88
:10586000C943018270470029018802D041F001013B
:1058700001E021F001010180704702460020138AF7
:1058800092890B4202EA010202D0002A00D00120D4
:105890007047002A828901D00A4300E08A4382814E
:1058A0007047000030B502881B4B1C4C98420DD04D
:1058B000A0420BD0B0F1804F08D0194DA84205D0BE
:1058C000184DA84202D0184DA84203D122F070050D
:1058D0004A882A43154DA84206D0154DA84203D048
:1058E00022F44075CA882A4302808A8882850A8801
:1058F000028598420AD0A04208D00E4A904205D0B4
:105900000D4A904202D00D4A904201D1097A018697
:105910000121818230BD0000002C01400034014093
:105920000004004000080040000C0040001000404F
:105930000014004000400140004401400048014084
:10594000810006480144D1F8000C48F68F721040DF
:1059500048F2C0021043C1F8000C704700500040EC
:1059600010B50A4C40F22551204600F037F808B136
:1059700003F066F90821204600F029F8002804D039
:105980002046BDE8104000F0B7B810BD004400400C
:1059900010B5038A4FF2FF0213400A884C88224355
:1059A0008C88C9880C4322431A43028210BD00210F
:1059B000018041808180C18070470029818902D0A7
:1059C00041F4005101E021F4005181817047024609
:1059D000002012880A4200D00120704730B501F043
:1059E0001F0201240025C1F3421304FA02F2012B25
:1059F0000FD0022B0FD0838A4FEA11210088134267
:105A000004FA01F400EA040001D000B1012528469F
:105A100030BD8389F0E7038AEEE710B5C1F3421386
:105A200001F01F040121A140012B07D0022B07D058
:105A30001430002A026805D00A4304E00C30F8E76D
:105A40001030F6E78A43026010BD000030B504460E
:105A5000008A85B00D464CF6FF710840E988014385
:105A60002182A1894EF6F3100140A8882A891043AB
:105A70006A890A431043A081A08A4FF6FF4108407B
:105A8000A9890143A1826846FFF788FA1948844230
:105A900001D1039800E00298A189090400EBC0013C
:105AA00001EB0010296801D5490000E08900B0FB36
:105AB000F1F06422B0FBF2F109010B096FF0180557
:105AC0006B4300EB8300A3891D044FF0320306D51E
:105AD00003EBC000B0FBF2F000F0070005E003EBC1
:105AE0000010B0FBF2F000F00F000843208105B079
:105AF00030BD0000003801408088C0F308007047C6
:105B0000C1F30801818070474FF4165101600021F4
:105B10008180C18001810C22428181817047FEF722
:105B200079BB000006480549022201600A72064A54
:105B30000449C0E9011208680047000088270020D6
:105B4000481A0020BC1000202419002038B54FF45A
:105B5000C060FFF723F914208DF8000001248DF8B0
:105B600001408DF802408DF803406846FFF7E4F8E5
:105B700013208DF800008DF8014000208DF8020000
:105B80008DF803406846FFF7D7F838BD38B54FF4B5
:105B9000C060FFF703F914208DF8000001248DF890
:105BA00001408DF8024000258DF803506846FFF74C
:105BB000C3F813208DF800008DF801408DF80250D5
:105BC0008DF803506846FFF7B7F838BD70B50D4D36
:105BD00028680D4C208020880C4E31880840000435
:105BE00001D5FEF757FB208831880840400507D5CE
:105BF0004FF6FF30286006484068BDE87040004717
:105C000070BD0000445C0040A4100020541A002025
:105C1000BC100020FFF7DABF0549002008600549E5
:105C20004FF4044008800249091F086000207047B3
:105C3000445C0040541A002070B500F07F060D4609
:105C40003046FEF709FF04463046FEF7F5FE0146F2
:105C500022462846FFF73AF9204670BD70B500F09D
:105C60007F0514460E462846FEF706FF0146A2B2FF
:105C7000304600F01BF8A1B22846FFF7F1FA0020E9
:105C800070BD10B500214FF08050FFF76FF9002173
:105C90004FF40000FFF76AF9FEF7E8FDFFF776FF23
:105CA000BDE81040FFF7AABDFEE70000094B10B5A4
:105CB000521C520803EB41010AD000BF10F8013B0F
:105CC000521E10F8014B43EA042321F8043BF5D19E
:105CD00010BD00000060004002E008C8121F08C1AB
:105CE000002AFAD170477047002001E001C1121F5D
:105CF000002AFBD1704700000246002004E000BFEC
:105D000012F8013B1844C0B2491EF9D27047000096
:105D1000154910B5002209681346CC2804D0212863
:105D200009D020280ED01DE04B8210488861002049
:105D300000F04EF814E0087800F07F00212811D11F
:105D40000B4A08E0087800F07F00212800D1094ABA
:105D5000094C202020702AB18A614B820020904794
:105D6000002010BD022010BD481A0020D15D00089F
:105D7000B15F0008CD5F0008A81000200149FFF7BF
:105D8000DBBB0000B41000200149FFF7D5BB0000C9
:105D9000F01000201CB5044AD2E90012CDE900122F
:105DA0006946FFF7C9FB1CBD88B1000806490968B0
:105DB000C978052903D9EE2901D000207047034A8C
:105DC00002EBC101FFF7B8BB481A002020110020E8
:105DD000064909688988090A052904DC044A02EB96
:105DE000C101FFF7A9BB002070470000481A00203E
:105DF000F010002009B9002800D0022070470000F0
:105E0000034900200968097801F07F01704700000C
:105E1000481A002070B55748002100688172C1728D
:105E20005549C97941720020FFF708F94FF4007114
:105E30000020FFF73BFA10210020FFF71FFA18217E
:105E40000020FFF7A3F958210020FFF7F9F90020FF
:105E5000FEF7F6FA494C002014F8301FFFF7A6F9B8
:105E60000020FFF7DBF901210846FFF71FFAA02108
:105E70000120FFF78BF9E0210120FFF7E1F9402134
:105E80000120FFF793F94FF4405529460120FFF711
:105E9000ADF920210120FFF7F1F902210846FFF7B3
:105EA00005FA0220FFF762F9E022A0210220FFF7A5
:105EB000F1F8402201210220FFF706F90220FEF747
:105EC00097FA0220FEF7A8FA0220FFF739FD2946CB
:105ED0000220FFF78BF900210220FFF7CFF9E9102C
:105EE0000420FFF7E3F94FF4907631460420FFF7E2
:105EF000A7F900210420FFF779F920210420FFF7FA
:105F0000BDF905210846FFF7D1F94FF4B07105201E
:105F1000FFF73CF931460520FFF792F940210520B3
:105F2000FFF744F929460520FFF760F920210520F5
:105F3000FFF7A4F906210846FFF7B8F94FF480717E
:105F40000620FFF77DF900210620FFF74FF92021F9
:105F50000620FFF793F921780020FFF727F90020AA
:105F6000FFF75CF90020FFF771F805490120086090
:105F700070BD0000481A00209CAF0008BC10002033
:105F80004819002001490420086070474819002082
:105F900010B5054C2078202804D1201D02F0F6FD14
:105FA0000020207010BD0000A810002070470000E5
:105FB00008B1044870470449082009680882002095
:105FC00070470000AC100020481A002008B10448B7
:105FD00070470449082009680882002070470000C3
:105FE000AC100020481A0020034800218170A0F660
:105FF0007C31416070470000542600207047704794
:1060000012010002EF020140BF3210B22102010270
:1060100003010000204810B50068807A012812D0E2
:10602000002838D00520FEF7F7F90420FEF7F4F930
:106030000520FEF7DDF90420FFF782FCBDE81040E3
:106040000520FFF77DBC1549052008600620FEF7F6
:10605000E3F90520FEF7E0F90420FEF7DDF905205D
:10606000FEF7C6F90220FEF7C3F90220FEF7D4F9C5
:106070000420FFF765FC0520FFF762FC0220FFF714
:106080005FFC07484FF48041016149004161BDE870
:10609000104002F057BD10BD481A002048190020DA
:1060A000001001402DE9F047DFF828814A4C08F63E
:1060B0006C3098F80110626AC1F3411798F80250E9
:1060C0000021904708F67C367378042005214FF0B4
:1060D000000906229BB308F103076B0926D0B0EB39
:1060E000551F05D0B1EB551F02D0B2EB551F60D143
:1060F000394900223C31E369012098470122E369D4
:10610000394610469847226A2946832090473148ED
:106110002838406800EB8000C000FEF720FB012219
:106120002D49E3693C311046984742E0E36901227A
:10613000394628469847484686F80D9038E0FFE7EC
:10614000B046B668682306F8013B6B0906F8019B68
:1061500037D0B0EB551F05D0B1EB551F02D0B2EBD5
:10616000551F14D11C4900223C31E3690120984796
:10617000226A2946822090470022E36931460120A5
:1061800098470122144910463C31E3699847032F90
:106190001BD004208519D8F8080046460621FFF7D1
:1061A000ABFD287016206870032F10D00020083037
:1061B0003061626A012109489047BDE8F047FFF766
:1061C00013BF002231462846DFE70820E2E704201B
:1061D000EDE70000D81A00204C19002044260020CA
:1061E000F8B52B4909220878012600F06007A1F6CE
:1061F0007C30002F02D04FF00A0301E04FF006037D
:106200004C68A4EB000407D0C25C4FEA42054FF093
:106210000D0205F1020502E0C55C05F1010502EB86
:106220008502A24231D848601B4E1A4C0020726B86
:10623000214690470FB1093400E0641DB078102862
:1062400007D013491920503908700820B2689047C8
:1062500015E04FF4C85002F08BFEADF8000069461F
:106260001020F3E721462FB1F26840209047083410
:10627000AD1E04E0F26820209047241D6D1E002D05
:10628000F0D1BDE8F840FFF7AFBE8E70F8BD00005A
:1062900054260020DA1A00204C19002070B5224C38
:1062A00000202169002915D00025257300E0401C3D
:1062B00021698142FBD8206968B12069402822D831
:1062C0002269A1688620FFF7C9FC30210620FEF76D
:1062D000D5FF256170BDA16868200870607BA1684A
:1062E0004870607BA16868308870A1681620C8700B
:1062F000A16804228620FFF7B1FCBDE87040302180
:106300000620FEF7BBBFA16840228620FFF7A6FC4F
:1063100030210620FEF7B2FF206940382061A068D6
:106320004030A06070BD00005426002070B50220EF
:10633000FEF758FB4006144D4FF001014FF00200EC
:1063400009D5FEF779FA0220FEF756FBC4B2686859
:106350002246A02108E0FEF76FFA0220FEF75CFB60
:10636000C4B268682246E021FEF7B0FD68682044A8
:1063700068604FF400510220FEF738FFFFF706FC7B
:1063800002490120487070BD542600204C1900209D
:106390002DE9F84F294D2A4FA878ED1C401C4FEAF3
:1063A000D008B878102805D1287800F0FC0002F059
:1063B000DFFD287005EB0803224C13F8010B401C8D
:1063C000C60860784FF0000A58B1012029460090B5
:1063D000BD6932464046A84784F80DA0C4F810A015
:1063E00022E0A146A4686820FF2104F8010B01EB1C
:1063F000C60104F801AB504604F8011B29789F2917
:1064000016D029460090BD69234632464046A8472B
:10641000D9F8080034444D46F11CFFF76DFC20709C
:1064200016206070761D2E61BDE8F84FFFF7DCBDC9
:10643000F0063A69000E21469047E9E7D81A002095
:106440004C1900205426002010B5FEF723FB094804
:10645000002400688472FEF76DFDFFF7DDFB07483E
:106460000549C0F870171221A0F874170448046099
:1064700010BD0000481A0020B5B00008201100200F
:10648000481900202DE9F84F01210C20FEF77AFD74
:106490000220ADF8000010278DF803700320DFF80C
:1064A000ECB08DF8020069465846FEF749FA202004
:1064B000ADF8000069465846FEF742FA7801DFF869
:1064C000D0A0ADF8000069465046FEF739FA012623
:1064D000ADF8006069465846FEF732FA3002ADF872
:1064E000000069465046FEF72BFA8024ADF80040C4
:1064F00069465046FEF724FAADF800406946584612
:10650000FEF71EFA4025ADF8005069465846FEF7E2
:1065100017FAADF8005069465046FEF711FA4FF4ED
:106520000068ADF8008069465046FEF709FA4FF45E
:106530008069ADF8009069465046FEF701FAADF863
:10654000007048208DF8030069465846FEF7F8F9B8
:1065500010490020C1F88401C1F894010E4AC2F824
:10656000A401C1F88061C2F8A0610948103004603C
:10657000064810300460001D0560054814300560B1
:10658000C0F80080C0F80090BDE8F88F0008014016
:10659000000C014000002142008021420148407867
:1065A000704700004C19002070B5C006D2061E4688
:1065B000000E140E049D00F045FB314620461DB12F
:1065C000BDE8704000F07CB9BDE8704000F034B820
:1065D00070B5C006D2061E46000E140E049D00F0D3
:1065E000D5FB314620461DB1BDE8704000F074BABD
:1065F000BDE8704000F0D2B870B5084C0020C4F877
:106600008401074D04F5C2746868FEF7A8F80120FC
:1066100020606868BDE87040FEF7A1B80000214224
:10662000E019002003480021C0F884110121C0F8BE
:1066300084117047000021422DE9F047544C4FF07F
:10664000000A0E46C70800F00709D046C4F894A116
:10665000C4F884A10125C4F88451C4F89451C4F845
:1066600084A1C4F88451C4F89451C4F884A1C4F836
:106670008451C4F89451C4F884A1C4F88451C4F876
:106680009451C4F88481C4F8845104F5C27400F0B4
:1066900033FC0020C4F8008025603E49DFF8F88014
:1066A000A4F5C274097889B30022D44614E0082105
:1066B000C4F884C1C4F88451D8F8003040089B065F
:1066C00001D540F08000491E11F0FF01F0D106F81D
:1066D000010B0020521CD2B2BA42E8D3B9F100013A
:1066E00040D000BFC4F884C1C4F88451D8F8002059
:1066F0004008920601D540F08000491E11F0FF01CC
:10670000F0D1C9F10801C84030702BE0FFE700214B
:10671000534616E05FF00802C4F88431C4F884518F
:10672000D8F800C040085FEA8C6C01D540F08000CA
:10673000521E12F0FF02EFD106F8010B0020491C97
:10674000C9B2B942E6D30BE05FF00800C4F8843167
:10675000C4F88451401E10F0FF00F7D1491CC9B2A3
:106760000429F1D35646C4F884A1C4F88451C4F86E
:1067700084A1C4F8845104F5C27400F0D3FB2561F0
:106780002660256026602560BDE8F04700F030BA3D
:1067900000002142E0190020080801402DE9F05FC7
:1067A000DFF810B14FEAD00800F0070900200E46CC
:1067B000CBF894010BF5CA74FFF71EFF0125256085
:1067C000FFF71AFF2560FFF717FF2560FFF714FF9B
:1067D0002560FFF711FF00F08FFB0024FFF70CFF8F
:1067E00035480178354871B30027824612E0082504
:1067F000FFF702FFDAF800006408800601D544F0D4
:1068000080046D1E15F0FF05F2D106F8014B00243F
:106810007F1CFFB24745EAD3B9F1000038D00546E6
:106820004FEA0A07FFF7E8FE38686408800601D5DA
:1068300044F080046D1E15F0FF05F3D1C9F1080086
:10684000C440347024E0FFE70025814612E00827A9
:10685000FFF7D2FED9F800006408800601D544F0A5
:1068600080047F1E17F0FF07F2D106F8014B0024C9
:106870006D1CEDB24545EAD308E00824FFF7BCFEE5
:10688000641E14F0FF04F9D16D1CEDB2042DF4D395
:10689000FFF7B2FEFFF7B0FE00F044FB0120CBF89B
:1068A0009401FFF7A9FEFFF7A7FEBDE8F05F00F037
:1068B000B7B9000000002142E0190020080801409B
:1068C000F0B4C60800F0070581480023C0F89431F1
:1068D000C0F884310122C0F88421C0F89431C0F896
:1068E0008431C0F88421C0F89421C0F88431C0F804
:1068F0008421C0F89421C0F88431C0F88421C0F804
:106900009421C0F88431C0F88421724F00243F786C
:10691000F7BB5BE011F8017B07F0010C7C40C0F88D
:1069200094C17F08C0F88431C0F8842107F0010CBD
:10693000C0F894C17F08C0F88431C0F8842107F002
:10694000010CC0F894C17F08C0F88431C0F88421DC
:1069500007F0010CC0F894C17F08C0F88431C0F87A
:10696000842107F0010CC0F894C17F08C0F884317D
:10697000C0F8842107F0010CC0F894C17F08C0F86A
:106980008431C0F8842107F0010CC0F894C100E004
:106990000AE07F08C0F88431C0F88421C0F89471FF
:1069A000C0F88431C0F88421761EF6B2B2D2E5B3C5
:1069B00009784C40C0F894114908C0F88431C0F8F7
:1069C00084216D1E15F0FF05F4D15FE000254BE03A
:1069D00011F8017B07F0010C7C40C0F894C17F08DE
:1069E000C0F88431C0F8842107F0010CC0F894C1CC
:1069F0007F08C0F88431C0F8842107F0010CC0F88A
:106A000094C17F08C0F88431C0F8842107F0010CDC
:106A1000C0F894C17F08C0F88431C0F8842107F021
:106A2000010CC0F894C17F0800E02FE0C0F8843169
:106A3000C0F8842107F0010CC0F894C17F08C0F8A9
:106A40008431C0F8842107F0010CC0F894C17F089C
:106A5000C0F88431C0F88421C0F89471C0F8843142
:106A6000C0F884216D1CEDB2B542B1D30CE0082111
:106A7000C0F89431C0F88431C0F88421491E11F067
:106A8000FF01F5D16D1CEDB2042DF0D384EA141191
:106A900081EA910181EA5101491CC9B2C0F89411FF
:106AA000C0F88431C0F88421C0F89421C0F8843142
:106AB000C0F88421C0F89421C0F88431C0F8842142
:106AC000C0F88431C0F88421F0BC00F091B8000017
:106AD00000002142E01900202DE9F05FDFF808A155
:106AE0004FF0000B8946C50800F007045F46CAF85E
:106AF00094B10AF5CA76FFF77FFD3760FFF77CFD9A
:106B000001273760FFF778FD3760FFF775FD3760C5
:106B1000FFF772FD35484FF00008007878B921E0A2
:106B200019F8016B5FF0080788EA0608CAF8946153
:106B30007608FFF761FD7F1E17F0FF07F6D16D1E87
:106B4000EDB2EDD29CB399F80050564688EA05089C
:106B5000C6F894516D08FFF74FFD641E14F0FF0452
:106B6000F6D125E0002410E019F8016B5FF008076A
:106B700088EA0608CAF894617608FFF73DFD7F1E93
:106B800017F0FF07F6D1641CE4B2AC42ECD35E46CA
:106B90005746042C0CD20825C7F89461FFF72CFD4A
:106BA0006D1E15F0FF05F7D1641CE4B2F1E7FFE7B5
:106BB00088EA181080EA900080EA5000401CC0B2B9
:106BC000CAF894010AF5CA74FFF716FD012525607D
:106BD000FFF712FD2560FFF70FFDFFF70DFDBDE884
:106BE000F05F00F01DB8000000002142E019002015
:106BF000094810B5016A006AC1F3C45161F3DF00AE
:106C000000230649012203E0C1F88431C1F8842140
:106C1000401EC0B2F8D210BDB01A002000002142C0
:106C2000074810B5016A046AC1F3C45161F3DF0477
:106C300002E000BFFFF7E0FC641EE4B2FAD210BD30
:106C4000B01A0020F0B4C50800F007044E48002335
:106C5000C0F89431C0F884310122C0F88421C0F812
:106C60009431C0F88431C0F88421C0F89431C0F860
:106C70008431C0F88421C0F89421C0F88431C0F870
:106C80008421C0F8942100BFC0F88431C0F8842169
:106C90006D1EEDB249D311F8017B87EA171686EA1B
:106CA000960607F0010C86EA5606C0F894C17F08E4
:106CB000C0F88431C0F8842107F0010CC0F894C1F9
:106CC0007F08C0F88431C0F8842107F0010CC0F8B7
:106CD00094C17F08C0F88431C0F8842107F0010C0A
:106CE000C0F894C17F08C0F88431C0F8842107F04F
:106CF000010CC0F894C17F08C0F88431C0F8842129
:106D000007F0010CC0F894C17F08C0F88431C0F8C6
:106D1000842107F0010CC0F894C17F08C0F88431C9
:106D2000C0F88421C0F89471AEE794B1097881EA83
:106D3000111585EA950585EA550600BFC0F894113E
:106D40004908C0F88431C0F88421641E14F0FF049F
:106D5000F4D1761CF1B2C0F89411C0F88431C0F8B7
:106D60008421C0F89421C0F88431C0F88421C0F88F
:106D70009421C0F88431C0F88421C0F88431C0F86F
:106D80008421F0BCFFF734BF000021422DE9F05F01
:106D90002E4CC50800270E4600F00708C4F8947171
:106DA00004F5CA74FFF728FC2760FFF725FC27606D
:106DB000FFF722FC4FF0010B5F46C4F800B0FFF76D
:106DC0001BFC2760A4F5CA74FFF716FCA2460FE06F
:106DD0003478082784EA141080EA900080EA500989
:106DE000CAF894416408FFF707FC7F1EF8D1761CAF
:106DF0006D1EEDB2ECD2B8F1000F10D034784546DC
:106E000084EA141080EA900080EA50094FEA0A06EA
:106E1000C6F894416408FFF7EFFB6D1EF8D109F145
:106E20000100C0B2CAF894010AF5CA74FFF7E4FB86
:106E30005D46C4F800B0FFF7DFFB2560FFF7DCFB21
:106E4000FFF7DAFBBDE8F05FFFF7EABE0000214282
:106E50002DE9F041124FDDE9065601221C463A7039
:106E600040B139B10A78D20704D10838C0B2491C00
:106E7000FFF7E8FE84B1083C35B12878C00703D19C
:106E8000E0B2691CFFF71CFD36B12878C00703D0BB
:106E9000E0B2711CFFF7D0FB00203870BDE8F08134
:106EA000E01900202DE9F041124FDDE906560122DC
:106EB0001C463A7040B139B10A78D20704D108387B
:106EC000C0B2491CFFF762FF84B1083C35B1287895
:106ED000C00703D1E0B2691CFFF7FEFD36B1287888
:106EE000C00703D0E0B2711CFFF758FC00203870D7
:106EF000BDE8F081E0190020094908B5802008604C
:106F00002020ADF8000048208DF8030003208DF804
:106F10000200034869461438FDF712FD08BD000061
:106F200014080140094908B5802008602020ADF808
:106F3000000010208DF8030003208DF802000348A4
:106F400069461038FDF7FCFC08BD00001008014040
:106F500070B5C006D2061E46000E140E049D00F049
:106F6000C5FA314620461DB1BDE8704000F04CB96D
:106F7000BDE8704000F03EB870B5C006D2061E46AF
:106F8000000E140E049D00F081FB314620461DB119
:106F9000BDE8704000F0FEB9BDE8704000F0CAB82E
:106FA00070B500BF00BF0020074CC4F88401074D36
:106FB00004F5C2746868FDF7D2FB012020606868A0
:106FC000BDE87040FDF7CBBB00002142E019002076
:106FD00000BF00BF00210648C0F8841100F5C27050
:106FE00000BF00BF0121016000BF00BF704700006B
:106FF000000021422DE9F00300287DD04B4CC2084F
:1070000000F007060020C4F8940104F5C27400BF24
:1070100000BF206000BF00BF0125256000BF00BF8A
:10702000256100BF00BF206000BF00BF256000BF1A
:1070300000BF206100BF00BF206000BF00BF25600F
:1070400000BF00BF206100BF00BF206000BF00BFC5
:107050002560A4F5C27400BF00BFDFF8D4C081462C
:1070600020E00023082042EA06075B081FB9012838
:1070700001D1C4F8945100BF00BFC4F8849100BF8F
:1070800000BFC4F8845100BF00BFDCF800805FEA95
:10709000C86801D543F08003401E10F0FF00E4D122
:1070A00001F8013B521ED2B2DBD2FEB100203246C3
:1070B0004B464008012A01D1C4F8945100BF00BFDB
:1070C000C4F8843100BF00BFC4F8845100BF00BFC2
:1070D000DCF80070FF0601D540F08000521E12F06F
:1070E000FF02E6D1C6F10802D0400870C4F89451FE
:1070F00004F5C27400BF00E015E000BF4846C4F8C4
:10710000009000BF00BF256000BF00BF206100BF2E
:1071100000BF206000BF00BF256000BF00BFBDE80A
:10712000F00300F0B3B9BDE8F0037047000021425E
:10713000080801402DE9F05F884600285ED0304DF8
:10714000C408002700F00706C5F8947105F5CA7554
:10715000FFF726FF4FF0010BC5F800B0FFF720FF47
:107160002F60FFF71DFF2F60A5F5CA75FFF718FF09
:10717000AA4619E00027082544EA06097F08B9F164
:10718000000F03D1012D01D1CAF894B1FFF708FF18
:107190001C480068C00601D547F080076D1E15F039
:1071A000FF05EBD108F8017B641EE4B2E2D2BEB168
:1071B000144F002435466408012D01D1CAF894B15A
:1071C000FFF7EEFE3868C00601D544F080046D1E5E
:1071D00015F0FF05EFD1C6F10800C44088F8004063
:1071E0005446CAF894B1FFF7DBFE0020C4F89401BE
:1071F000FFF7D6FEBDE8F05F00F066B9BDE8F09F8E
:107200000000214208080140F0B400287DD0C608E3
:1072100000F007055D480022C0F8942100F5C27017
:1072200000BF00BF026000BF00BF0123036000BFBA
:1072300000BF036100BF00BF026000BF00BF03606A
:1072400000BF00BF026100BF00BF026000BF00BFFF
:10725000036000BF00BF02614D4CA0F5C2705CE04E
:1072600011F8017B00BF00BFC0F8842100F5C27097
:1072700000BF00BF036000BF00BFC4F8A4717F0857
:1072800004F5D27400BF00BF026000BF00BF0360FE
:1072900000BF00BF27607F0800BF00BF026000BFC3
:1072A00000BF036000BF00BF27607F0800BF00BFB2
:1072B000026000BF00BF036000BF00BF27607F08FF
:1072C00000BF00BF026000BF00BF036000BF00BF7F
:1072D00027607F0800BF00BF026000BF00BF0360DF
:1072E00000BF00BF27607F0800BF00BF026000BF73
:1072F00000BF036000BF00BF27607F0800BF00BF62
:10730000026000BF00BF036000E03DE0A0F5C27076
:1073100000BF00BF2760A4F5D274761EF6B29FD2DC
:107320008DB109780CE000BF00BFC0F8842100BF18
:1073300000BFC0F8843100BF00BFC4F8A4114908E1
:107340006D1EEDB2EFD2C0F8943100F5C27000BFEF
:1073500000BF026000BF00BF036000BF00BF036149
:1073600000BF00BF026000BF00BF036000BF00BFDE
:10737000026100BF00BF026000BF00BF036000BF2A
:1073800000BFF0BC00F082B8F0BC704700002142A2
:10739000008021422DE9F05F0F46002870D0DFF811
:1073A000E4904FF0000BC60800F00705D846C9F876
:1073B00094B109F5CA74FFF7F3FD4FF0010AC4F860
:1073C00000A0FFF7EDFDC4F80080FFF7E9FDC4F869
:1073D00000802D4C34E000BF17F8018BFFF7E0FD73
:1073E000C4F8A4814FEA580804F5D274FFF7D8FD19
:1073F000C4F800804FEA5808FFF7D2FDC4F80080B7
:107400004FEA5808FFF7CCFDC4F800804FEA58084F
:10741000FFF7C6FDC4F800804FEA5808FFF7C0FD2B
:10742000C4F800804FEA5808FFF7BAFDC4F800809E
:107430004FEA5808FFF7B4FDC4F80080A4F5D274F1
:10744000761EF6B2C8D24DB13E7804E0FFF7A8FD33
:10745000C4F8A46176086D1EEDB2F7D25546C9F89E
:1074600094A109F5CA74FFF79BFD2560FFF798FD0D
:10747000C4F800B0FFF794FDBDE8F05F00F024B859
:10748000BDE8F09F00002142008021420C4810B569
:10749000016A006AC1F3C45161F3DF0000230949A6
:1074A000012209E000BF00BFC1F8843100BF00BF66
:1074B000C1F8842100BF00BF401EC0B2F2D210BD8F
:1074C000B01A002000002142074810B5016A046A82
:1074D000C1F3C45161F3DF0402E000BFFFF760FDB8
:1074E000641EE4B2FAD210BDB01A0020F0B4002835
:1074F0007ED0C60800F0070562480022C0F894213B
:1075000000F5C27000BF00BF026000BF00BF0124D1
:10751000046000BF00BF046100BF00BF026000BF85
:1075200000BF046000BF00BF046100BF00BF026075
:1075300000BF00BF046000BF00BF026100BF00BF0A
:10754000026000BF00BF046000BF00BF02614E4B7D
:10755000A0F5C2705DE000BF11F8017B00BF00BF65
:10756000C0F8842100F5C27000BF00BF046000BFF6
:1075700000BFC3F8A4717F0803F5D27300BF00BF3A
:10758000026000BF00BF046000BF00BF1F607F0833
:1075900000BF00BF026000BF00BF046000BF00BFAB
:1075A0001F607F0800BF00BF026000BF00BF046013
:1075B00000BF00BF1F607F0800BF00BF026000BFA8
:1075C00000BF046000BF00BF1F607F0800BF00BF96
:1075D000026000BF00BF046000BF00BF1F607F08E3
:1075E00000BF00BF026000BF00BF046000BF00E03A
:1075F00046E000BF1F607F0800BF00BF026000BF01
:1076000000BF0460A0F5C27000BF00BF1F60A3F5FB
:10761000D273761EF6B29FD28DB109780CE000BF0E
:1076200000BFC0F8842100BF00BFC0F8844100BF84
:1076300000BFC3F8A41149086D1EEDB2EFD2C0F827
:10764000944100F5C27000BF00BF026000BF00BFE0
:10765000046000BF00BF046100BF00BF026000BF44
:1076600000BF046000BF00BF026100BF00BF026036
:1076700000BF00BF046000BF00BFF0BCFFF706BF43
:10768000F0BC704700002142008021422DE9F05FEC
:107690000F46002874D0DFF8ECA04FF0000BC608AE
:1076A00000F00705D846CAF894B10AF5CA74FFF786
:1076B00077FC4FF00109C4F80090FFF771FCC4F8A3
:1076C0000090FFF76DFCC4F80080FFF769FCC4F878
:1076D00000802D4C34E000BF17F8018BFFF760FCF1
:1076E000C4F8A4814FEA580804F5D274FFF758FC97
:1076F000C4F800804FEA5808FFF752FCC4F8008035
:107700004FEA5808FFF74CFCC4F800804FEA5808CD
:10771000FFF746FCC4F800804FEA5808FFF740FC2A
:10772000C4F800804FEA5808FFF73AFCC4F800801C
:107730004FEA5808FFF734FCC4F80080A4F5D2746F
:10774000761EF6B2C8D24DB13E7804E0FFF728FCB1
:10775000C4F8A46176086D1EEDB2F7D24D46CAF8A2
:1077600094910AF5CA74FFF71BFC2560FFF718FC1B
:10777000C4F800B0FFF714FCBDE8F05FFFF7A4BE4B
:10778000BDE8F09F000021420080214270B51C46F8
:10779000DDE9046518B111B10AB100F09FFA002CBF
:1077A0000AD0002E08D0002D06D02A4631462046A9
:1077B000BDE8704000F018B870BD70B51C46DDE93A
:1077C000046518B111B10AB100F014FC002C0AD004
:1077D000002E08D0002D06D02A4631462046BDE8AE
:1077E000704000F085B970BD2DE9F05F00287DD0B4
:1077F000C70800F00705BB480026AE46C0F89461F4
:1078000000F5C27000BF00BF066000BF00BF4FF0B0
:10781000010CC0F800C000BF00BFC0F810C000BF1E
:1078200000BF066000BF00BFC0F800C000BF00BFBF
:10783000066100BF00BF066000BF00BFC0F800C007
:1078400000BF00BF066100BF00BF066000BF00BFF1
:10785000C0F800C0A0F5C27000BF00BFA24B8024DA
:10786000B246E146F1E000BF11F801BB9F4E0BF0BC
:10787000010CC6F8A4C100BF00BFC0F884A100BFBE
:1078800000BFC0F8849100BF00BF92F800C04FEA6B
:107890005C0C82F800C0D3F800804FEA5B0B04EA6E
:1078A000C8084CEA080C82F800C00BF0010CC6F8BE
:1078B000A4C100BF00BFC0F884A100BF00BFC0F8D2
:1078C000849100BF00BF92F800C04FEA5C0C82F8C0
:1078D00000C0D3F800804FEA5B0B04EAC8084CEA0A
:1078E000080C82F800C00BF0010C00E0F7E0C6F8CD
:1078F000A4C100BF00BFC0F884A100BF00BFC0F892
:10790000849100BF00BF92F800C04FEA5C0C82F87F
:1079100000C0D3F800804FEA5B0B04EAC8084CEAC9
:10792000080C82F800C00BF0010CC6F8A4C100BF1F
:1079300000BFC0F884A100BF00BFC0F8849100BFA1
:1079400000BF92F800C04FEA5C0C82F800C0D3F888
:1079500000804FEA5B0B04EAC8084CEA080C82F886
:1079600000C00BF0010CC6F8A4C100BF00BFC0F8F6
:1079700084A100BF00BFC0F8849100BF00BF92F88F
:1079800000C04FEA5C0C82F800C0D3F800804FEAD8
:107990005B0B04EAC8084CEA080C82F800C00BF044
:1079A000010CC6F8A4C100BF00BFC0F884A100BF8D
:1079B00000BFC0F8849100BF00BF92F800C04FEA3A
:1079C0005C0C82F800C0D3F8008004EAC8084CEAD6
:1079D000080C82F800C04FEA5B0C0CF00108C6F8F6
:1079E000A48100BF00BFC0F884A100BF00BFC0F8E1
:1079F000849100BF00BF167876081670D3F8008017
:107A000004EAC80846EA080616704FEA5C0657EA18
:107A1000050C01D1C0F89491DFF8D0C0CCF8A46176
:107A200000BF00BFC0F884A100BF00BFC0F88491B0
:107A300000BF00BF167876081670D3F800C004EABD
:107A4000CC0C46EA0C0602F8016B7F1EFFB2BFF4B5
:107A50000BAF45B309784E46DFF890801BE00DB9B7
:107A6000C0F8946101F00107C8F8A47100BF00BF1D
:107A7000C0F884A100BF00BFC0F8846100BF00BF90
:107A800017787F081770D3F800C0490804EACC0CB7
:107A900047EA0C0717706D1EEDB2E0D21178CEF1F7
:107AA0000803D94011704946C0F8949100F5C2709E
:107AB00000BF00BF5246C0F800A000BF00BF016079
:107AC00000BF00BF026100BF00BF026000BF00BF77
:107AD000016000BF00BFBDE8F05FFFF7D7BCBDE8A5
:107AE000F09F000000002142080801400080214270
:107AF0002DE9F84F14460F4600287DD0DFF8D081DD
:107B000000F007054FF000090095C608C8F89491E9
:107B1000FFF746FA0120C8F89401FFF741FAC8F8C8
:107B20009491FFF73DFAC8F89491FFF739FADFF81E
:107B3000A481DFF8A4914FF0800A8FE017F801BB11
:107B40000BF00101C8F8A411FFF72AFA20784008C9
:107B50002070D9F800204FEA5B0B0AEAC201084303
:107B600020700BF00101C8F8A411FFF719FA207872
:107B700040082070D9F800204FEA5B0B0AEAC201E6
:107B8000084320700BF00101C8F8A411FFF708FAB0
:107B9000207840082070D9F800204FEA5B0B0AEAF1
:107BA000C201084320700BF00101C8F8A411FFF7CF
:107BB000F7F9207840082070D9F800204FEA5B0BD5
:107BC0000AEAC201084320700BF00101C8F8A411B1
:107BD000FFF7E6F9207840082070D9F800204FEA36
:107BE0005B0B0AEAC201084320700BF00101C8F8E0
:107BF000A411FFF7D5F900E067E020784008207075
:107C0000D9F800204FEA5B0B0AEAC2010843207052
:107C10000BF00101C8F8A411FFF7C2F92078400861
:107C20002070D9F800200AEAC201084320704FEA08
:107C30005B0056EA050103D1254A0121C2F89411DF
:107C4000C8F8A401FFF7ACF9207840082070D9F8F3
:107C500000200AEAC201084304F8010B761EF6B2BE
:107C6000BFF46CAF0DB33E78DFF864B0574613E055
:107C700015B90120CBF8940106F00101C8F8A41150
:107C8000FFF78EF9207840082070D9F8001007EA35
:107C9000C1010843207076086D1EEDB2E8D200994C
:107CA0002078C1F10801C8402070094C0120C4F8B7
:107CB000940104F5CA74FFF773F900202060FFF700
:107CC0006FF9BDE8F84FFFF7FFBBBDE8F88F000084
:107CD0000000214200802142080801402DE9F05FA8
:107CE00000287DD0C70800F00705BF480026AE4633
:107CF000C0F8946100F5C27000BF00BF066000BF0D
:107D000000BF4FF0010CC0F800C000BF00BFC0F8BA
:107D100010C000BF00BF066000BF00BFC0F800C0B9
:107D200000BF00BFC0F810C000BF00BF066000BFAA
:107D300000BFC0F800C000BF00BF066100BF00BFA9
:107D4000066000BF00BFC0F800C000BF00BF0661F2
:107D500000BF00BF066000BF00BFC0F800C0A0F5B4
:107D6000C27000BF00BFA14B8024B246E146EFE0E5
:107D700011F801BB9E4E0BF0010CC6F8A4C100BF68
:107D800000BFC0F884A100BF00BFC0F8849100BF4D
:107D900000BF92F800C04FEA5C0C82F800C0D3F834
:107DA00000804FEA5B0B04EAC8084CEA080C82F832
:107DB00000C00BF0010CC6F8A4C100BF00BFC0F8A2
:107DC00084A100BF00BFC0F8849100BF00BF92F83B
:107DD00000C04FEA5C0C82F800C0D3F8008000E0DD
:107DE00000E104EAC8084CEA080C82F800C04FEA37
:107DF0005B0B0BF0010CC6F8A4C100BF00BFC0F8BC
:107E000084A100BF00BFC0F8849100BF00BF92F8FA
:107E100000C04FEA5C0C82F800C0D3F800804FEA43
:107E20005B0B04EAC8084CEA080C82F800C00BF0AF
:107E3000010CC6F8A4C100BF00BFC0F884A100BFF8
:107E400000BFC0F8849100BF00BF92F800C04FEAA5
:107E50005C0C82F800C0D3F800804FEA5B0B04EAA8
:107E6000C8084CEA080C82F800C00BF0010CC6F8F8
:107E7000A4C100BF00BFC0F884A100BF00BFC0F80C
:107E8000849100BF00BF92F800C04FEA5C0C82F8FA
:107E900000C0D3F800804FEA5B0B04EAC8084CEA44
:107EA000080C82F800C00BF0010CC6F8A4C100BF9A
:107EB00000BFC0F884A100BF00BFC0F8849100BF1C
:107EC00000BF92F800C04FEA5C0C82F800C0D3F803
:107ED000008004EAC8084CEA080C82F800C04FEAA7
:107EE0005B0C0CF00108C6F8A48100BF00BFC0F80D
:107EF00084A100BF00BFC0F8849100BF00BF167806
:107F000076081670D3F8008004EAC80846EA080626
:107F100016704FEA5C0657EA050C01D1C0F894913F
:107F2000DFF8CCC0CCF8A46100BF00BFC0F884A1CA
:107F300000BF00BFC0F8849100BF00BF167876086C
:107F40001670D3F800C004EACC0C46EA0C06167092
:107F50007F1EFFB2BFF40CAF45B309784E46DFF881
:107F600090801BE00DB9C0F8946101F00107C8F8DA
:107F7000A47100BF00BFC0F884A100BF00BFC0F85B
:107F8000846100BF00BF17787F081770D3F800C066
:107F9000490804EACC0C47EA0C0717706D1EEDB2D5
:107FA000E0D21378CEF10801CB4013704946C0F8F7
:107FB000949100F5C27000BF00BF5246C0F800A007
:107FC00000BF00BF016000BF00BF026100BF00BF73
:107FD000026000BF00BF016000BF00BFBDE8F05FEE
:107FE000FFF754BABDE8F09F0000214208080140A5
:107FF000008021422DE9F84F14460F4600287DD01D
:10800000DFF8DC8100F007054FF000090095C60895
:10801000C8F89491FEF7C4FF4FF0010AC8F894A184
:10802000FEF7BEFFC8F894A1FEF7BAFFC8F8949116
:10803000FEF7B6FFC8F89491FEF7B2FFDFF8A4810F
:10804000DFF8A4914FF0800A90E000BF17F801BB61
:108050000BF00101C8F8A411FEF7A2FF2078400838
:108060002070D9F800204FEA5B0B0AEAC2010843EE
:1080700020700BF00101C8F8A411FEF791FF2078E1
:1080800040082070D9F800204FEA5B0B0AEAC201D1
:10809000084320700BF00101C8F8A411FEF780FF1F
:1080A000207840082070D9F800204FEA5B0B0AEADC
:1080B000C201084320700BF00101C8F8A411FEF7BB
:1080C0006FFF207840082070D9F800204FEA5B0B42
:1080D0000AEAC201084320700BF00101C8F8A4119C
:1080E000FEF75EFF207840082070D9F800204FEAA4
:1080F0005B0B0AEAC2010843207000E06DE00BF060
:108100000101C8F8A411FEF74BFF20784008207049
:10811000D9F800204FEA5B0B0AEAC201084320703D
:108120000BF00101C8F8A411FEF73AFF20784008CF
:108130002070D9F800200AEAC201084320704FEAF3
:108140005B0056EA050103D1254A0121C2F89411CA
:10815000C8F8A401FEF724FF207840082070D9F861
:1081600000200AEAC201084304F8010B761EF6B2A9
:10817000BFF46CAF0DB33E78DFF864B0574613E040
:1081800015B90120CBF8940106F00101C8F8A4113B
:10819000FEF706FF207840082070D9F8001007EAA3
:1081A000C1010843207076086D1EEDB2E8D2009937
:1081B0002078C1F10801C8402070094C0120C4F8A2
:1081C000940104F5CA74FEF7EBFE00202060FEF770
:1081D000E7FEBDE8F84FFFF777B9BDE8F88F00007C
:1081E0000000214200802142080801402DE9FC479F
:1081F000DFF87C9099F8001099F80000C1F341175E
:1082000010F010064FF00008A9F67C3404D00A25BF
:10821000A01C00F09EFE06E06179D4F8020006255D
:1082200061F31F604146635DD9F808404D466822FE
:1082300004F8012B04F8018B04F8013BCDE900762A
:108240000C4E22465B1CF66AB0470444A868201A0C
:1082500028612969A868FDF74FFD2070162060701D
:108260002869801C2861BDE8FC47FDF7BDBE000001
:10827000542600204C1900202DE9FC411C480178AF
:10828000C1F34117017811F0100602D00A220D2324
:1082900001E00622092344681649641A8A5C521CCC
:1082A0001A44A24220D8804641608C1C00252EB181
:1082B000204600F04EFE04F1080205E0E178206857
:1082C000221D61F31F60294612F8013B0A4CCDE9DB
:1082D0000076246B5B1CA047C8F8105088F80D503E
:1082E000BDE8FC41FDF780BE01218170BDE8FC8145
:1082F00054260020D81A00204C190020064810B53A
:10830000002101730161A0F67A3001F041FFBDE860
:108310001040FDF769BE0000542600202DE9FC47FF
:10832000DFF808810024D8F80800FF2870D06826FC
:1083300009271625052866D2DFE800F0030F21265D
:1083400035008DF800608DF801708DF80240102026
:108350008DF803408DF8040005E08DF800608DF87D
:108360000170012018E08DF805500622694686202C
:10837000FDF774FC30210620FCF780FF43E0D8F8BD
:108380000C0001F059FF01E001F05EFF8DF8006084
:108390008DF8017098F808008DF802008DF8034000
:1083A0008DF80440DFE7224DA9462E706F70042639
:1083B000AE7001F049FF1F4801680622B2EB117F41
:1083C00004D1016AC1F34221022903D00068B6EB4F
:1083D000107F08D1D8F80400801E00EBD07041084F
:1083E000A9F8061003E0B8F80400801EE8804FF4F6
:1083F00080510F4801F0FCFE0221C8F80410D8F8A3
:108400000C0001F019FF72B6FF21C8F8081062B61F
:108410004046D8F80010002906D072B6046062B653
:10842000BDE8FC4700F0B0BCBDE8FC87101A002096
:1084300000000020B01A00207FB50546012100246D
:108440000846FCF793FD1C208DF80C0002208DF8E7
:108450000D008DF80E0001208DF80F00124890FBE2
:10846000F5F0010C04D081B290FBF1F480B2641EEF
:10847000ADF80400ADF800400020ADF80600ADF8FE
:1084800002004FF0804469462046FDF70BFA0122B6
:1084900011462046FDF7FDF903A8FCF74DFC01212C
:1084A0002046FDF7E0F97FBD00A24A0470B51149EE
:1084B000114C00204870A078104D18B900F020F839
:1084C000FF2803D0E07855F820008047207B012862
:1084D00001D1FDF7E3FE4FF440510220FCF786FE88
:1084E000FDF734FBBDE87040022264210020FCF758
:1084F000F7BB00004C1900205426002090B1000862
:10850000384810B50178682901D0FF2010BD4178A6
:10851000354C01F07F00252858D018DC072857D0AB
:1085200006DC34D2DFE800F03535373750525400DE
:10853000142849D006DC08284ED009284ED00C2833
:1085400025D147E0152841D0242820D13CE06228DD
:1085500021D00EDC452839D006DC342834D035282B
:1085600034D0442813D12FE054282DD055280ED1D3
:108570002CE06C282ED006DC63280CD0642823D095
:10858000652804D122E074281ED075281ED0FF2053
:1085900002E0002000E00120E070E078FF280ED02B
:1085A0002170207840F30000401C607020780006A5
:1085B00016D46078A0B1002020730C48A0600A484F
:1085C00000F0A0FBE07810BD0220E5E70320E3E720
:1085D0000420E1E70520DFE70620DDE70720DBE7F1
:1085E0000120E9E7D81A002054260020D8240020D2
:1085F0002DE9F04F87B000252B490295039504958E
:10860000059501F67C398F78D9F808402E46AB469F
:10861000682204F8012BC91C04F8015B04F8017BF3
:108620002FE000BF11F8010BC21D01EBD20212F8BE
:10863000018B92461D4A08F10703DD08D2F828C0D5
:10864000BCF1000F11D002ABCDE900A3434604AA50
:10865000E04704F8018B2A4602A92046FBF772FD89
:108660002C440AEB0501002008E0012189F80D10D7
:10867000C9F810B007B0BDE8F08F401CA842FCDB81
:10868000761CBE42CEDDD9F808004E46E91CFDF747
:1086900033FB04F8010B162004F8010BB068201A14
:1086A0003061FDF7A1FCE5E7D81A00204C19002045
:1086B00070B51E4800F67C3182784D780023A0F119
:1086C0002804C01CC5B1057846780A2A45EA062563
:1086D0008678C07845EA064545EA006002D3012065
:1086E00048731FE044F822004B730B610AB1042A5F
:1086F00018D100F01DF815E054F822008C6808220B
:108700000A61682222706370A070020AE270020C93
:108710002271000E607188680621FDF7EDFAA071E4
:108720001620E071BDE87040FDF75EBCD81A00204D
:108730002DE9F047C64801680623C64AC64C012603
:10874000B3EB117F0DD1C549E161C5492162C5492E
:108750006162C549E162C549C4E90C12C449A1631B
:1087600050E003680525C349B5EB137F0AD1C24B1E
:10877000E361C24B2362C24B6362C24BE362C24BF2
:1087800023630FE005680427C04AC14BB7EB157F90
:108790000BD1C04DE561C04D2562C04D6562C4E995
:1087A0000B23BF4AC4E90D212CE007684FF0030CEE
:1087B000BC4DBCEB177F05D1BB4FE761BB4F2762B8
:1087C000BB4F1AE007684FF0020CBCEB177F05D1D6
:1087D000B84FE761B84F2762B84F0EE00768B6EBB5
:1087E000177F05D1B64FE761B64F2762B64F04E059
:1087F000B64FE761B64F2762B64F6762C4E90D51C5
:10880000C4E90B2380460068B34910F0706FB34F82
:10881000D8F800504FF00C024FF02A03404604D025
:10882000C5F30365012D57D0ADE0D0F800C0EDB21F
:108830000CF47F0C45EA1C252A2D2ED3DFF8A0C2AC
:10884000C4F808C0DFF89CC2C4F80CC0DFF898C2B6
:10885000C4F810C02A3DDFF894C2B5FBF2F2C4F8A8
:1088600018C0DFF88CC2C4F828C0DFF888C2C4F88A
:1088700014C00A6002EB4201026803EB810102F0BE
:10888000FF220260026801F47F4342EA0322026091
:108890000268C9B20A43026014E0026802F0FF22D3
:1088A0000260026842F0120202609348A06093489E
:1088B000E060934820619348A0619348A062934888
:1088C00060610E605FF00005C7F89461FEF768FB19
:1088D0006D1C5A2DF8D356E00568D0F800C0EDB2F3
:1088E0000CF47F0C45EA1C252A2D2ED3DFF820C27C
:1088F000C4F808C0DFF81CC2C4F80CC0DFF818C206
:10890000C4F810C02A3DDFF814C2B5FBF2F2C4F877
:1089100018C0DFF80CC2C4F814C0DFF808C2C4F8ED
:1089200028C00A6002EB4201026803EB810102F0F9
:10893000FF220260026801F47F4342EA03220260E0
:108940000268C9B20A43026014E0026802F0FF2222
:108950000260026842F0120202607348A06073482D
:10896000E060734820617348A06173486061734898
:10897000A0620E605FF00005C7F89461FEF710FB7F
:108980006D1C5A2DF8D3D8F800004546C0F30120DD
:108990006B494FF0000803280AD02868C0F3012073
:1089A000012820D02868C0F30120022824D02AE022
:1089B000C7F880818946C1F8A081A868E968884223
:1089C00008D9E868FBF7D3FEC7F88061A868E968B2
:1089D000401A0CE0A868FBF7CAFEC9F8A061E86875
:1089E000A968401A0BE08946C1F8A081A868FBF786
:1089F000BEFEC9F8A06106E0C7F88081E868FBF711
:108A0000B6FEC7F880612868A94640050FD5002545
:108A1000C7F89461C7F884810220FBF7A0FEC7F86D
:108A200084610220FBF79BFE6D1C642DF0D3D9F806
:108A300000104846C90401D5102100E00821A170AA
:108A4000016821F4E0610160BDE8F047FDF7CCBAB0
:108A5000B01A0020F1A000084C190020099A000863
:108A6000A19B000857A000088D9C0008399F0008B2
:108A700075930008F3A0000891990008FF5F0008B3
:108A800055A00008899C00085D9E0008A59B000871
:108A9000799D000879980008659B000853A000089C
:108AA000B9A0000859A0000899970008399B000850
:108AB00051A0000899950008B19A00084FA000083D
:108AC000A9940008799A00084DA000089D93000819
:108AD000119A000825A00008E41900200000214296
:108AE0008D7600089573000835710008796F0008CD
:108AF000BB770008A16F0008ED7400080972000838
:108B0000F56F0008516F00088D770008D16F0008DD
:108B10008D6D0008D96A00089D670008D1650008BE
:108B2000F9650008A56E0008456C0008C1680008DA
:108B300039660008A965000825660008516E00081E
:108B40000080214210B5FDF79DFC0E480021017008
:108B500041708170C170A0F67C324260A0F5BE7297
:108B6000826001730161A0F6A430074901606421AD
:108B700041604FF47A71C1608160BDE81040FFF739
:108B8000D7BD000054260020030000211FB5044675
:108B90006846FCF7B9FF2179002021B1012905D0F1
:108BA00002291ED105E0ADF8060006E04FF4405161
:108BB00001E04FF40051ADF80610617921B10129AF
:108BC00005D002290DD105E0ADF8080006E04FF40C
:108BD000806101E04FF4C061ADF80810A179082967
:108BE00004D000F021F8002004B010BDBDF808103A
:108BF00021B14FF48051ADF8041001E0ADF804004C
:108C00002168ADF80C000C20ADF80A000091684610
:108C100002F070F903480249416081600120E3E7F6
:108C200008270020F41900201FB56846FCF76CFFE8
:108C30004FF4E1300090684602F05CF91FBD00007F
:108C400010B50748FCF758FF06494A6802F8010BBF
:108C500005484A60824201D17F38486010BD00005B
:108C600000440040F41900208727002070B5144C00
:108C7000D4E90101884222D02268531C2360B2F556
:108C8000FA7F1CDD00220F4E2260884202D2751A44
:108C9000803502E072B6451A62B62A468520FCF796
:108CA000DDFF30210520FCF7E9FA72B6A06805491E
:108CB00028447F31A060884200D9A66062B670BDAA
:108CC000F41900200827002070B50E460446094D0F
:108CD0000BE000BF14F8011B2846FCF711FF4021F0
:108CE0002846FCF774FE0028F9D0761EF2D23046F2
:108CF00070BD00000044004001490020087070472A
:108D0000E019002070B51E4CA16B88471D4DE87816
:108D100021780026884230D0E8782070E07888B149
:108D20000122E36904F13C01104698470122E369FE
:108D300004F1440102209847626A0121A5F1100064
:108D40009047E67001262671E878022802D0E8787C
:108D5000032811D10B480021626A10389047084956
:108D600000223C31E3690120984705490022443143
:108D7000E36902209847E67070BD267170BD00005F
:108D80004C190020542600202DE9FF414C4E376835
:108D90004C4D4FF480614FF0060C8A1E4B1E4A4C1E
:108DA0006868BCEB177F43D188420FD1316AC1F3A9
:108DB0004221022918D0022104EB8102526844F8B2
:108DC0002120491C9942F7D3401E68604FF0007182
:108DD000712002F027F8306AC0F3422040012028B9
:108DE00010D0402812D109E004EB81039B6844F8BD
:108DF0002130491C9142F7D3801EE6E7052001A9E6
:108E000001F026FF6946042001F022FFDDE9002180
:108E1000686844F82020401C6860326AC2F342222D
:108E2000022A03D144F82010401C6860BDE8FF818D
:108E3000042788421AD13168B7EB117F4FF0020145
:108E40000AD100BF04EB81039B6844F82130491C20
:108E50009142F7D3801E08E004EB8102526844F887
:108E60002120491C9942F7D3401E686086210020CA
:108E70000191CDE902001549012004220978102949
:108E800004D12969022041F4064101913168B7EB10
:108E9000117F00D10822DFF838C000210091DCF8F2
:108EA00000C002AB01A9E047DDE90221686844F88F
:108EB0002020401C68603268B7EB127FB2D0B5E763
:108EC000B01A0020101A0020000000204E190020C7
:108ED000641900207CB50E4CE068A0B1606890B9C0
:108EE0000C480025006A800DC00708D00020CDE99D
:108EF0000000024601236946022001F033FF2946A3
:108F0000182001F08FFF0020E0606060A0607CBD51
:108F1000A0190020B01A002070B50A4E002400BF2E
:108F200006EB04152868401C07D0A86808B18047E4
:108F300018B1E96809B168688847641C0A2CEFDB3E
:108F400070BD000068260020C178006861F31F60D2
:108F500070470346002010B501460722090241EA86
:108F600010610402985C2043521EF7D510BD00002A
:108F70000249C96961F3010070470000B01A00207E
:108F800030B5012301F01F0403EB0111C9B20D2814
:108F90002ED2DFE800F02D070C0F142D2D1A1D2006
:108FA0002326290044EA0410107012201EE01170DC
:108FB000102001E01170182040EA141016E0641E21
:108FC00003EB04101070202010E01370A2200DE0BD
:108FD0001370C2200AE01370822007E01370B220E1
:108FE00004E01370D22001E013709220507030BD65
:108FF00000201070FAE730B58423402401F01F01EF
:109000000D2832D2DFE800F0311F31311031311636
:10901000191C0D0A07001370582024E01370542007
:1090200021E0137050201EE0491E44EA41001070F8
:10903000202018E01370547030BD1370442012E0EB
:10904000137048200FE03C2000EA8100022340EA30
:10905000811003EAD103184340EA11101070C1F3E4
:10906000810040F01C00507030BD00201070FAE705
:1090700010B5402301F01F010D2828D2DFE800F0D1
:10908000271D272710272714171A0D0A070013700A
:10909000B1201AE01370A92017E01370A12014E08A
:1090A000491E1170212010E0137081200DE0137013
:1090B00089200AE01370912007E0880140EA8100CE
:1090C000C01C10706C2040EA9100507010BD002050
:1090D0001070FAE72DE9F04F01F01F0444F0200C66
:1090E00000232127C025412401F01F064FF0050B66
:1090F0004FF0D8094FF0100E4FF0DC0A0D285FD268
:10910000DFE800F05E070E243B5E5E4245495053A7
:10911000570082F800C0482050709670C42031E09B
:109120006020BBEB511F04D11770507082F802C051
:1091300009E006231770B3EB511F507002D146F0BF
:10914000E00014E09670D570BDE8F08F6420BBEBB2
:10915000511F04D182F800C050709770F3E70623C6
:1091600082F800C0B3EB511F507003D1E120907022
:10917000C12007E001209070E5E7761E167053705D
:109180009770A020D070DFE71370537006E0137063
:1091900082F801E002E0137020205070947082F891
:1091A0000390D1E71370537006E0137082F801E06A
:1091B00002E0137020205070947082F803A0C3E77F
:1091C000137053709370D370BEE72DE9F04F01F028
:1091D0001F0444F0200C00232127C025412401F066
:1091E0001F064FF0050B4FF0D8094FF0100E4FF04F
:1091F000DC0A0D285FD2DFE800F05E070E243B5E3C
:109200005E4245495053570082F800C048205070D4
:109210009670C42031E06020BBEB511F04D1177061
:10922000507082F802C009E006231770B3EB511F9B
:10923000507002D146F0E00014E09670D570BDE8A1
:10924000F08F6420BBEB511F04D182F800C0507036
:109250009770F3E7062382F800C0B3EB511F5070FC
:1092600003D1E1209070C12007E001209070E5E774
:10927000761E167053709770E420D070DFE713707D
:10928000537006E0137082F801E002E013702020B2
:109290005070947082F80390D1E71370537006E019
:1092A000137082F801E002E0137020205070947077
:1092B00082F803A0C3E7137053709370D370BEE7B6
:1092C000F0B501F01F048025032623272023002169
:1092D0000F2836D2DFE800F035083535113535175F
:1092E0001A1F25282E223100132040EAC4101070C6
:1092F000600840EAC413537003E093201070557067
:109300002001907014E01670812001E01670912009
:10931000507091700CE01670A120F9E71670B12022
:10932000F6E71770557002E01770902007E0937011
:10933000D170F0BD1770A02001E01770B020507000
:10934000F5E711705170E4E7094901EB80004042F4
:1093500000F47F2141F06F01C0F3C02241EA0251C5
:10936000C0F3490241EA4251001541EAC07070471A
:10937000FCFBFFFF70B5074C074D6078296A00F0D1
:109380007F00884205D0FFF7A5FD607800F07F00E0
:10939000286270BDD81A0020A01900202DE9F84FCE
:1093A000DFF8FC80DFF8F4B00D468646140098F82C
:1093B00004C098F8057098F806A098F8073098F857
:1093C000081098F8099098F80A004FF04B0698F8A2
:1093D0000B800BF10D025C468BF8006031D02E78CB
:1093E00066706E78A670AE78E670ED78257184F8B8
:1093F00005C0A77184F807A02372617284F80A90EF
:10940000E07284F80C8071460120FFF7B9FD8020DE
:10941000E07307200125234E20740095631C3768F4
:10942000102259462846B8470B2020700820E073C8
:1094300006202074631C10220095594601203468D0
:1094400029E000266670A670E670267184F805C0D3
:10945000A77184F807A02372617284F80A90E07201
:1094600084F80C8071460120FFF78AFD8020E073AC
:10947000062020740B4F01200090631CD7F800C019
:1094800010220649E0478B202070009604223C6899
:109490002B4602490120A047BDE8F88F0426002092
:1094A00044260020641900202DE9F74F384C82B083
:1094B0009520DFF8E08020704FF0000B1746CDF8C4
:1094C00000B0631C0222D8F8005021460120A847B2
:1094D00060784FF0150A40F08005A07884F800A06D
:1094E00000F0FE0040F00606657017B146F001007E
:1094F00001E026F00100A0704FF00109CDF80090C6
:10950000631CD8F800C0022221494846E04757B101
:1095100011202070CDF800900422D8F800C01C491A
:109520000120039BE0475420207002980F2805D9A2
:109530000146621C0120FFF7CDFD04E00146E21C5C
:109540000120FFF758FDCDF80090631C0422D8F8E5
:1095500000C00F490120E04757B991202070CDF895
:1095600000B00422D8F8007009490120039BB847D5
:1095700084F800A06570A670631CCDF800900222EC
:10958000D8F8004002490120A04705B0BDE8F08F9F
:1095900004260020641900202DE9F74F834682B08D
:1095A0007A480026ADF804600078794C794F15466A
:1095B0004FF0010810281AD095202070002000904C
:1095C000631C02223E6821460120B946B0476078FC
:1095D00040F08006A07800F0FE0040F0060715205D
:1095E0002070002D66707ED047F001007DE04FF4C2
:1095F0001540FFF7BDFCADF80400B246009602220C
:109600003E68634B01A91046B946B047207840F048
:109610008006607800F0FE0040F006074FF4A85086
:10962000FFF7A6FCADF80400267015B147F0010065
:1096300001E027F001006070CDF800800222D9F827
:1096400000C0534B01A91046E04775B14FF4885054
:10965000FFF78EFCADF80400CDF800800422D9F8A5
:1096600000C001A90220039BE0475846BBF10F0F41
:1096700005D90146464A0120FFF7A7FD04E001464F
:10968000A21C0120FFF7F4FC4FF4A840FFF770FC88
:10969000ADF80400CDF800800422D9F800C03C4B9E
:1096A00001A90220E04775B94FF41140FFF760FCB3
:1096B000ADF80400CDF800A00422D9F8005001A9AB
:1096C0000220039BA8474FF4A850FFF751FCADF8C8
:1096D00004002670677002222D4B01A91046CDF8B8
:1096E00000804CE0FFE727F00100A070A246631C59
:1096F000CDF800800222D9F8004025490120A0477A
:109700005DB111218AF80010CDF800800422D9F84B
:1097100000401F490120039BA04754208AF8000005
:1097200054465846BBF10F0F05D90146621C012073
:10973000FFF74BFD04E00146E21C0120FFF798FC17
:10974000CDF80080631C0422D9F800C01049012024
:10975000E04755B991202070002000900422D9F8EC
:1097600000500B490120039BA8471520207066700C
:10977000A770631C022206490120CDF80080D9F8A9
:109780000040A04705B0BDE8F08F00004E19002052
:1097900004260020641900202DE9F74F344C82B0D4
:1097A0009520DFF8D08020704FF0000B1746CDF8E1
:1097B00000B0631C0222D8F8005021460120A847BF
:1097C00060784FF0150A40F08005A07884F800A07A
:1097D00000F0FE0040F00606657017B146F001008B
:1097E00001E026F00100A0704FF00109CDF80090D3
:1097F000631CD8F800C002221D494846E04757B113
:1098000011202070CDF800900422D8F800C018492B
:109810000120039BE04754202070621C0120029924
:10982000FFF74EFDCDF80090631C0422D8F800C06D
:109830000F490120E04757B991202070CDF800B0C2
:109840000422D8F800700A490120039BB84784F825
:1098500000A06570A670631CCDF800900222D8F8B5
:10986000004003490120A04705B0BDE8F08F00008B
:1098700004260020641900202DE9F74F82B04FF034
:10988000000A17465446ADF804A04FF41540FFF700
:109890006FFB00943C4CDFF8F4B0ADF80400A31C5F
:1098A0000222DBF8005001A91046A847A07840F03A
:1098B0008005E07800F0FE0040F006064FF4A85066
:1098C000FFF756FBADF80400A57017B146F0010094
:1098D00001E026F00100E0704FF00108A31CCDF874
:1098E0000080A1460222DBF800C001A910465C46B8
:1098F000E04777B14FF48850FFF73AFBADF804002A
:10990000CDF800800822D4F800C001A90220039BF2
:10991000E0474FF4A840FFF72BFBADF8040009F136
:10992000020201200299FFF7CBFCCDF8008004224F
:10993000D4F800C009F1020301A90220E0476FB981
:109940004FF41140FFF714FBADF80400CDF800A070
:109950000822276801A90220039BB8474FF4A850AA
:10996000FFF706FBADF8040089F8025089F80360A0
:10997000CDF800800222246809F1020301A91046F3
:10998000A04705B0BDE8F08F042600206419002030
:1099900010B50C46CAB10C681949002341EAC01140
:1099A0001A46184600F0F0FC0120FFF7CDFC0146F6
:1099B00000231A46012000F0E7FC01232146BDE800
:1099C00010401A46042000F0DFBC42F2230101EBF4
:1099D00000510C48002301431A46184600F0D4FCFD
:1099E0000120FFF7B1FC012301461A46184600F09A
:1099F000CBFC2146BDE81040042000F07FBC0000F5
:109A00000320004100080040002300F0FDBC0000DE
:109A100038B5164C4B2200F07F0022700022627095
:109A2000A270E2702271124A137963715379A371A3
:109A30009379E371D3792372137A6372537AA372A1
:109A4000937AE372D27A227304F10D02FFF798FA47
:109A50008020E07306202074631C2146054C012001
:109A6000009024681022A04738BD00000426002082
:109A7000442600206419002038B50B4C5422227073
:109A8000020605D500F07F00621CFFF723FB02E011
:109A9000E21CFFF7B0FA631C044C0120009024681C
:109AA00004220149A04738BD042600206419002083
:109AB0002DE9FC4705461D488946012601781C4FC3
:109AC0001C4C05F07F08102909D05420207028066E
:109AD0001ED5621C49464046FFF777FB1DE04FF458
